{
  "_format": "hh-sol-artifact-1",
  "contractName": "Accounts",
  "sourceName": "contracts/Accounts.sol",
  "abi": [
    {
      "inputs": [],
      "stateMutability": "nonpayable",
      "type": "constructor"
    },
    {
      "inputs": [
        {
          "internalType": "address",
          "name": "",
          "type": "address"
        }
      ],
      "name": "accounts",
      "outputs": [
        {
          "internalType": "string",
          "name": "name",
          "type": "string"
        },
        {
          "internalType": "string",
          "name": "email",
          "type": "string"
        },
        {
          "internalType": "string",
          "name": "role",
          "type": "string"
        },
        {
          "internalType": "string",
          "name": "timestamp",
          "type": "string"
        },
        {
          "internalType": "uint256",
          "name": "balance",
          "type": "uint256"
        },
        {
          "internalType": "string",
          "name": "dob",
          "type": "string"
        }
      ],
      "stateMutability": "view",
      "type": "function"
    },
    {
      "inputs": [
        {
          "internalType": "address",
          "name": "_address",
          "type": "address"
        },
        {
          "internalType": "string",
          "name": "name",
          "type": "string"
        }
      ],
      "name": "addAdmin",
      "outputs": [],
      "stateMutability": "nonpayable",
      "type": "function"
    },
    {
      "inputs": [
        {
          "internalType": "address",
          "name": "_address",
          "type": "address"
        },
        {
          "internalType": "string",
          "name": "name",
          "type": "string"
        }
      ],
      "name": "addManager",
      "outputs": [],
      "stateMutability": "nonpayable",
      "type": "function"
    },
    {
      "inputs": [
        {
          "internalType": "address",
          "name": "_address",
          "type": "address"
        },
        {
          "internalType": "string",
          "name": "name",
          "type": "string"
        }
      ],
      "name": "addUser",
      "outputs": [],
      "stateMutability": "nonpayable",
      "type": "function"
    },
    {
      "inputs": [
        {
          "internalType": "address",
          "name": "",
          "type": "address"
        }
      ],
      "name": "admins",
      "outputs": [
        {
          "internalType": "bool",
          "name": "",
          "type": "bool"
        }
      ],
      "stateMutability": "view",
      "type": "function"
    },
    {
      "inputs": [
        {
          "internalType": "address",
          "name": "_address",
          "type": "address"
        }
      ],
      "name": "checkAdmin",
      "outputs": [
        {
          "internalType": "bool",
          "name": "",
          "type": "bool"
        }
      ],
      "stateMutability": "view",
      "type": "function"
    },
    {
      "inputs": [
        {
          "internalType": "address",
          "name": "_address",
          "type": "address"
        }
      ],
      "name": "checkAdminOrManager",
      "outputs": [
        {
          "internalType": "bool",
          "name": "",
          "type": "bool"
        }
      ],
      "stateMutability": "view",
      "type": "function"
    },
    {
      "inputs": [
        {
          "internalType": "address",
          "name": "_address",
          "type": "address"
        }
      ],
      "name": "checkManager",
      "outputs": [
        {
          "internalType": "bool",
          "name": "",
          "type": "bool"
        }
      ],
      "stateMutability": "view",
      "type": "function"
    },
    {
      "inputs": [
        {
          "internalType": "address",
          "name": "_address",
          "type": "address"
        }
      ],
      "name": "checkOwner",
      "outputs": [
        {
          "internalType": "bool",
          "name": "",
          "type": "bool"
        }
      ],
      "stateMutability": "view",
      "type": "function"
    },
    {
      "inputs": [
        {
          "internalType": "address",
          "name": "_address",
          "type": "address"
        }
      ],
      "name": "checkOwnerOrAdminOrManager",
      "outputs": [
        {
          "internalType": "bool",
          "name": "",
          "type": "bool"
        }
      ],
      "stateMutability": "view",
      "type": "function"
    },
    {
      "inputs": [
        {
          "internalType": "string",
          "name": "_name",
          "type": "string"
        },
        {
          "internalType": "string",
          "name": "_email",
          "type": "string"
        },
        {
          "internalType": "string",
          "name": "_role",
          "type": "string"
        },
        {
          "internalType": "uint256",
          "name": "_balance",
          "type": "uint256"
        },
        {
          "internalType": "string",
          "name": "_dob",
          "type": "string"
        },
        {
          "internalType": "string",
          "name": "_timestamp",
          "type": "string"
        }
      ],
      "name": "createAccount",
      "outputs": [],
      "stateMutability": "nonpayable",
      "type": "function"
    },
    {
      "inputs": [
        {
          "internalType": "address",
          "name": "",
          "type": "address"
        }
      ],
      "name": "managers",
      "outputs": [
        {
          "internalType": "bool",
          "name": "",
          "type": "bool"
        }
      ],
      "stateMutability": "view",
      "type": "function"
    },
    {
      "inputs": [],
      "name": "owner",
      "outputs": [
        {
          "internalType": "address",
          "name": "",
          "type": "address"
        }
      ],
      "stateMutability": "view",
      "type": "function"
    },
    {
      "inputs": [
        {
          "internalType": "address",
          "name": "_address",
          "type": "address"
        }
      ],
      "name": "removeAdmin",
      "outputs": [],
      "stateMutability": "nonpayable",
      "type": "function"
    },
    {
      "inputs": [
        {
          "internalType": "address",
          "name": "_address",
          "type": "address"
        }
      ],
      "name": "removeManager",
      "outputs": [],
      "stateMutability": "nonpayable",
      "type": "function"
    },
    {
      "inputs": [
        {
          "internalType": "address",
          "name": "_address",
          "type": "address"
        }
      ],
      "name": "removeUser",
      "outputs": [],
      "stateMutability": "nonpayable",
      "type": "function"
    },
    {
      "inputs": [
        {
          "internalType": "address",
          "name": "_newOwner",
          "type": "address"
        }
      ],
      "name": "transferOwnership",
      "outputs": [],
      "stateMutability": "nonpayable",
      "type": "function"
    },
    {
      "inputs": [
        {
          "internalType": "address",
          "name": "",
          "type": "address"
        }
      ],
      "name": "users",
      "outputs": [
        {
          "internalType": "bool",
          "name": "",
          "type": "bool"
        }
      ],
      "stateMutability": "view",
      "type": "function"
    }
  ],
  "bytecode": "0x608060405234801561001057600080fd5b50336000806101000a81548173ffffffffffffffffffffffffffffffffffffffff021916908373ffffffffffffffffffffffffffffffffffffffff160217905550336000806101000a81548173ffffffffffffffffffffffffffffffffffffffff021916908373ffffffffffffffffffffffffffffffffffffffff160217905550611dc2806100a06000396000f3fe608060405234801561001057600080fd5b50600436106101165760003560e01c806398575188116100a2578063d16856ca11610071578063d16856ca14610306578063e0e3671c14610322578063ec26019d14610352578063f2fde38b14610382578063fdff9b4d1461039e57610116565b80639857518814610282578063a87430ba1461029e578063ac18de43146102ce578063ba283d2a146102ea57610116565b8063429b62e5116100e9578063429b62e5146101b35780634b68d431146101e35780635e5c06e2146101ff5780638da5cb5b146102345780639026dee81461025257610116565b806316aa83321461011b5780631785f53c1461014b578063229c76eb14610167578063294827a214610183575b600080fd5b61013560048036038101906101309190611468565b6103ce565b60405161014291906114b0565b60405180910390f35b61016560048036038101906101609190611468565b6104ce565b005b610181600480360381019061017c9190611611565b6105b7565b005b61019d60048036038101906101989190611468565b6106f5565b6040516101aa91906114b0565b60405180910390f35b6101cd60048036038101906101c89190611468565b61079f565b6040516101da91906114b0565b60405180910390f35b6101fd60048036038101906101f89190611611565b6107bf565b005b61021960048036038101906102149190611468565b610951565b60405161022b96959493929190611705565b60405180910390f35b61023c610c35565b6040516102499190611798565b60405180910390f35b61026c60048036038101906102679190611468565b610c59565b60405161027991906114b0565b60405180910390f35b61029c60048036038101906102979190611468565b610caf565b005b6102b860048036038101906102b39190611468565b610e40565b6040516102c591906114b0565b60405180910390f35b6102e860048036038101906102e39190611468565b610e60565b005b61030460048036038101906102ff91906117df565b610f9d565b005b610320600480360381019061031b9190611611565b61116e565b005b61033c60048036038101906103379190611468565b611257565b60405161034991906114b0565b60405180910390f35b61036c60048036038101906103679190611468565b6112af565b60405161037991906114b0565b60405180910390f35b61039c60048036038101906103979190611468565b611305565b005b6103b860048036038101906103b39190611468565b6113d6565b6040516103c591906114b0565b60405180910390f35b60008173ffffffffffffffffffffffffffffffffffffffff1660008054906101000a900473ffffffffffffffffffffffffffffffffffffffff1673ffffffffffffffffffffffffffffffffffffffff1614806104735750600160008373ffffffffffffffffffffffffffffffffffffffff1673ffffffffffffffffffffffffffffffffffffffff16815260200190815260200160002060009054906101000a900460ff165b806104c75750600260008373ffffffffffffffffffffffffffffffffffffffff1673ffffffffffffffffffffffffffffffffffffffff16815260200190815260200160002060009054906101000a900460ff165b9050919050565b60008054906101000a900473ffffffffffffffffffffffffffffffffffffffff1673ffffffffffffffffffffffffffffffffffffffff163373ffffffffffffffffffffffffffffffffffffffff161461055c576040517f08c379a00000000000000000000000000000000000000000000000000000000081526004016105539061196a565b60405180910390fd5b6000600160008373ffffffffffffffffffffffffffffffffffffffff1673ffffffffffffffffffffffffffffffffffffffff16815260200190815260200160002060006101000a81548160ff02191690831515021790555050565b60008054906101000a900473ffffffffffffffffffffffffffffffffffffffff1673ffffffffffffffffffffffffffffffffffffffff163373ffffffffffffffffffffffffffffffffffffffff16148061065a5750600160003373ffffffffffffffffffffffffffffffffffffffff1673ffffffffffffffffffffffffffffffffffffffff16815260200190815260200160002060009054906101000a900460ff165b610699576040517f08c379a0000000000000000000000000000000000000000000000000000000008152600401610690906119fc565b60405180910390fd5b6001600260008473ffffffffffffffffffffffffffffffffffffffff1673ffffffffffffffffffffffffffffffffffffffff16815260200190815260200160002060006101000a81548160ff0219169083151502179055505050565b6000600160008373ffffffffffffffffffffffffffffffffffffffff1673ffffffffffffffffffffffffffffffffffffffff16815260200190815260200160002060009054906101000a900460ff16806107985750600260008373ffffffffffffffffffffffffffffffffffffffff1673ffffffffffffffffffffffffffffffffffffffff16815260200190815260200160002060009054906101000a900460ff165b9050919050565b60016020528060005260406000206000915054906101000a900460ff1681565b60008054906101000a900473ffffffffffffffffffffffffffffffffffffffff1673ffffffffffffffffffffffffffffffffffffffff163373ffffffffffffffffffffffffffffffffffffffff1614806108625750600160003373ffffffffffffffffffffffffffffffffffffffff1673ffffffffffffffffffffffffffffffffffffffff16815260200190815260200160002060009054906101000a900460ff165b806108b65750600260003373ffffffffffffffffffffffffffffffffffffffff1673ffffffffffffffffffffffffffffffffffffffff16815260200190815260200160002060009054906101000a900460ff165b6108f5576040517f08c379a00000000000000000000000000000000000000000000000000000000081526004016108ec90611a8e565b60405180910390fd5b6001600360008473ffffffffffffffffffffffffffffffffffffffff1673ffffffffffffffffffffffffffffffffffffffff16815260200190815260200160002060006101000a81548160ff0219169083151502179055505050565b600460205280600052604060002060009150905080600001805461097490611add565b80601f01602080910402602001604051908101604052809291908181526020018280546109a090611add565b80156109ed5780601f106109c2576101008083540402835291602001916109ed565b820191906000526020600020905b8154815290600101906020018083116109d057829003601f168201915b505050505090806001018054610a0290611add565b80601f0160208091040260200160405190810160405280929190818152602001828054610a2e90611add565b8015610a7b5780601f10610a5057610100808354040283529160200191610a7b565b820191906000526020600020905b815481529060010190602001808311610a5e57829003601f168201915b505050505090806002018054610a9090611add565b80601f0160208091040260200160405190810160405280929190818152602001828054610abc90611add565b8015610b095780601f10610ade57610100808354040283529160200191610b09565b820191906000526020600020905b815481529060010190602001808311610aec57829003601f168201915b505050505090806003018054610b1e90611add565b80601f0160208091040260200160405190810160405280929190818152602001828054610b4a90611add565b8015610b975780601f10610b6c57610100808354040283529160200191610b97565b820191906000526020600020905b815481529060010190602001808311610b7a57829003601f168201915b505050505090806004015490806005018054610bb290611add565b80601f0160208091040260200160405190810160405280929190818152602001828054610bde90611add565b8015610c2b5780601f10610c0057610100808354040283529160200191610c2b565b820191906000526020600020905b815481529060010190602001808311610c0e57829003601f168201915b5050505050905086565b60008054906101000a900473ffffffffffffffffffffffffffffffffffffffff1681565b6000600160008373ffffffffffffffffffffffffffffffffffffffff1673ffffffffffffffffffffffffffffffffffffffff16815260200190815260200160002060009054906101000a900460ff169050919050565b60008054906101000a900473ffffffffffffffffffffffffffffffffffffffff1673ffffffffffffffffffffffffffffffffffffffff163373ffffffffffffffffffffffffffffffffffffffff161480610d525750600160003373ffffffffffffffffffffffffffffffffffffffff1673ffffffffffffffffffffffffffffffffffffffff16815260200190815260200160002060009054906101000a900460ff165b80610da65750600260003373ffffffffffffffffffffffffffffffffffffffff1673ffffffffffffffffffffffffffffffffffffffff16815260200190815260200160002060009054906101000a900460ff165b610de5576040517f08c379a0000000000000000000000000000000000000000000000000000000008152600401610ddc90611a8e565b60405180910390fd5b6000600360008373ffffffffffffffffffffffffffffffffffffffff1673ffffffffffffffffffffffffffffffffffffffff16815260200190815260200160002060006101000a81548160ff02191690831515021790555050565b60036020528060005260406000206000915054906101000a900460ff1681565b60008054906101000a900473ffffffffffffffffffffffffffffffffffffffff1673ffffffffffffffffffffffffffffffffffffffff163373ffffffffffffffffffffffffffffffffffffffff161480610f035750600160003373ffffffffffffffffffffffffffffffffffffffff1673ffffffffffffffffffffffffffffffffffffffff16815260200190815260200160002060009054906101000a900460ff165b610f42576040517f08c379a0000000000000000000000000000000000000000000000000000000008152600401610f39906119fc565b60405180910390fd5b6000600260008373ffffffffffffffffffffffffffffffffffffffff1673ffffffffffffffffffffffffffffffffffffffff16815260200190815260200160002060006101000a81548160ff02191690831515021790555050565b60008054906101000a900473ffffffffffffffffffffffffffffffffffffffff1673ffffffffffffffffffffffffffffffffffffffff163373ffffffffffffffffffffffffffffffffffffffff1614806110405750600160003373ffffffffffffffffffffffffffffffffffffffff1673ffffffffffffffffffffffffffffffffffffffff16815260200190815260200160002060009054906101000a900460ff165b61107f576040517f08c379a0000000000000000000000000000000000000000000000000000000008152600401611076906119fc565b60405180910390fd5b6040518060c0016040528087815260200186815260200185815260200182815260200184815260200183815250600460003373ffffffffffffffffffffffffffffffffffffffff1673ffffffffffffffffffffffffffffffffffffffff16815260200190815260200160002060008201518160000190816111009190611cba565b5060208201518160010190816111169190611cba565b50604082015181600201908161112c9190611cba565b5060608201518160030190816111429190611cba565b506080820151816004015560a08201518160050190816111629190611cba565b50905050505050505050565b60008054906101000a900473ffffffffffffffffffffffffffffffffffffffff1673ffffffffffffffffffffffffffffffffffffffff163373ffffffffffffffffffffffffffffffffffffffff16146111fc576040517f08c379a00000000000000000000000000000000000000000000000000000000081526004016111f39061196a565b60405180910390fd5b60018060008473ffffffffffffffffffffffffffffffffffffffff1673ffffffffffffffffffffffffffffffffffffffff16815260200190815260200160002060006101000a81548160ff0219169083151502179055505050565b60008173ffffffffffffffffffffffffffffffffffffffff1660008054906101000a900473ffffffffffffffffffffffffffffffffffffffff1673ffffffffffffffffffffffffffffffffffffffff16149050919050565b6000600260008373ffffffffffffffffffffffffffffffffffffffff1673ffffffffffffffffffffffffffffffffffffffff16815260200190815260200160002060009054906101000a900460ff169050919050565b60008054906101000a900473ffffffffffffffffffffffffffffffffffffffff1673ffffffffffffffffffffffffffffffffffffffff163373ffffffffffffffffffffffffffffffffffffffff1614611393576040517f08c379a000000000000000000000000000000000000000000000000000000000815260040161138a9061196a565b60405180910390fd5b806000806101000a81548173ffffffffffffffffffffffffffffffffffffffff021916908373ffffffffffffffffffffffffffffffffffffffff16021790555050565b60026020528060005260406000206000915054906101000a900460ff1681565b6000604051905090565b600080fd5b600080fd5b600073ffffffffffffffffffffffffffffffffffffffff82169050919050565b60006114358261140a565b9050919050565b6114458161142a565b811461145057600080fd5b50565b6000813590506114628161143c565b92915050565b60006020828403121561147e5761147d611400565b5b600061148c84828501611453565b91505092915050565b60008115159050919050565b6114aa81611495565b82525050565b60006020820190506114c560008301846114a1565b92915050565b600080fd5b600080fd5b6000601f19601f8301169050919050565b7f4e487b7100000000000000000000000000000000000000000000000000000000600052604160045260246000fd5b61151e826114d5565b810181811067ffffffffffffffff8211171561153d5761153c6114e6565b5b80604052505050565b60006115506113f6565b905061155c8282611515565b919050565b600067ffffffffffffffff82111561157c5761157b6114e6565b5b611585826114d5565b9050602081019050919050565b82818337600083830152505050565b60006115b46115af84611561565b611546565b9050828152602081018484840111156115d0576115cf6114d0565b5b6115db848285611592565b509392505050565b600082601f8301126115f8576115f76114cb565b5b81356116088482602086016115a1565b91505092915050565b6000806040838503121561162857611627611400565b5b600061163685828601611453565b925050602083013567ffffffffffffffff81111561165757611656611405565b5b611663858286016115e3565b9150509250929050565b600081519050919050565b600082825260208201905092915050565b60005b838110156116a757808201518184015260208101905061168c565b60008484015250505050565b60006116be8261166d565b6116c88185611678565b93506116d8818560208601611689565b6116e1816114d5565b840191505092915050565b6000819050919050565b6116ff816116ec565b82525050565b600060c082019050818103600083015261171f81896116b3565b9050818103602083015261173381886116b3565b9050818103604083015261174781876116b3565b9050818103606083015261175b81866116b3565b905061176a60808301856116f6565b81810360a083015261177c81846116b3565b9050979650505050505050565b6117928161142a565b82525050565b60006020820190506117ad6000830184611789565b92915050565b6117bc816116ec565b81146117c757600080fd5b50565b6000813590506117d9816117b3565b92915050565b60008060008060008060c087890312156117fc576117fb611400565b5b600087013567ffffffffffffffff81111561181a57611819611405565b5b61182689828a016115e3565b965050602087013567ffffffffffffffff81111561184757611846611405565b5b61185389828a016115e3565b955050604087013567ffffffffffffffff81111561187457611873611405565b5b61188089828a016115e3565b945050606061189189828a016117ca565b935050608087013567ffffffffffffffff8111156118b2576118b1611405565b5b6118be89828a016115e3565b92505060a087013567ffffffffffffffff8111156118df576118de611405565b5b6118eb89828a016115e3565b9150509295509295509295565b7f4f6e6c79206f776e65722063616e2063616c6c20746869732066756e6374696f60008201527f6e00000000000000000000000000000000000000000000000000000000000000602082015250565b6000611954602183611678565b915061195f826118f8565b604082019050919050565b6000602082019050818103600083015261198381611947565b9050919050565b7f4f6e6c79206f776e6572206f722061646d696e2063616e2063616c6c2074686960008201527f732066756e6374696f6e00000000000000000000000000000000000000000000602082015250565b60006119e6602a83611678565b91506119f18261198a565b604082019050919050565b60006020820190508181036000830152611a15816119d9565b9050919050565b7f4f6e6c79206f776e65722c2061646d696e206f72206d616e616765722063616e60008201527f2063616c6c20746869732066756e6374696f6e00000000000000000000000000602082015250565b6000611a78603383611678565b9150611a8382611a1c565b604082019050919050565b60006020820190508181036000830152611aa781611a6b565b9050919050565b7f4e487b7100000000000000000000000000000000000000000000000000000000600052602260045260246000fd5b60006002820490506001821680611af557607f821691505b602082108103611b0857611b07611aae565b5b50919050565b60008190508160005260206000209050919050565b60006020601f8301049050919050565b600082821b905092915050565b600060088302611b707fffffffffffffffffffffffffffffffffffffffffffffffffffffffffffffffff82611b33565b611b7a8683611b33565b95508019841693508086168417925050509392505050565b6000819050919050565b6000611bb7611bb2611bad846116ec565b611b92565b6116ec565b9050919050565b6000819050919050565b611bd183611b9c565b611be5611bdd82611bbe565b848454611b40565b825550505050565b600090565b611bfa611bed565b611c05818484611bc8565b505050565b5b81811015611c2957611c1e600082611bf2565b600181019050611c0b565b5050565b601f821115611c6e57611c3f81611b0e565b611c4884611b23565b81016020851015611c57578190505b611c6b611c6385611b23565b830182611c0a565b50505b505050565b600082821c905092915050565b6000611c9160001984600802611c73565b1980831691505092915050565b6000611caa8383611c80565b9150826002028217905092915050565b611cc38261166d565b67ffffffffffffffff811115611cdc57611cdb6114e6565b5b611ce68254611add565b611cf1828285611c2d565b600060209050601f831160018114611d245760008415611d12578287015190505b611d1c8582611c9e565b865550611d84565b601f198416611d3286611b0e565b60005b82811015611d5a57848901518255600182019150602085019450602081019050611d35565b86831015611d775784890151611d73601f891682611c80565b8355505b6001600288020188555050505b50505050505056fea26469706673582212208be1ad4dc14b4eb3f8a74011ebb257048f1a3f0f542625c782c5012db2f518f864736f6c63430008110033",
  "linkReferences": {},
  "deployedLinkReferences": {}
}