{
  "_format": "hh-sol-artifact-1",
  "contractName": "Events",
  "sourceName": "contracts/Events.sol",
  "abi": [
    {
      "inputs": [],
      "stateMutability": "nonpayable",
      "type": "constructor"
    },
    {
      "inputs": [
        {
          "internalType": "address",
          "name": "_address",
          "type": "address"
        },
        {
          "internalType": "string",
          "name": "name",
          "type": "string"
        }
      ],
      "name": "addAdmin",
      "outputs": [],
      "stateMutability": "nonpayable",
      "type": "function"
    },
    {
      "inputs": [
        {
          "internalType": "address",
          "name": "_address",
          "type": "address"
        },
        {
          "internalType": "string",
          "name": "name",
          "type": "string"
        }
      ],
      "name": "addManager",
      "outputs": [],
      "stateMutability": "nonpayable",
      "type": "function"
    },
    {
      "inputs": [
        {
          "internalType": "address",
          "name": "_address",
          "type": "address"
        },
        {
          "internalType": "string",
          "name": "name",
          "type": "string"
        }
      ],
      "name": "addUser",
      "outputs": [],
      "stateMutability": "nonpayable",
      "type": "function"
    },
    {
      "inputs": [
        {
          "internalType": "address",
          "name": "",
          "type": "address"
        }
      ],
      "name": "admins",
      "outputs": [
        {
          "internalType": "bool",
          "name": "",
          "type": "bool"
        }
      ],
      "stateMutability": "view",
      "type": "function"
    },
    {
      "inputs": [
        {
          "internalType": "address",
          "name": "_address",
          "type": "address"
        }
      ],
      "name": "checkAdmin",
      "outputs": [
        {
          "internalType": "bool",
          "name": "",
          "type": "bool"
        }
      ],
      "stateMutability": "view",
      "type": "function"
    },
    {
      "inputs": [
        {
          "internalType": "address",
          "name": "_address",
          "type": "address"
        }
      ],
      "name": "checkAdminOrManager",
      "outputs": [
        {
          "internalType": "bool",
          "name": "",
          "type": "bool"
        }
      ],
      "stateMutability": "view",
      "type": "function"
    },
    {
      "inputs": [
        {
          "internalType": "address",
          "name": "_address",
          "type": "address"
        }
      ],
      "name": "checkManager",
      "outputs": [
        {
          "internalType": "bool",
          "name": "",
          "type": "bool"
        }
      ],
      "stateMutability": "view",
      "type": "function"
    },
    {
      "inputs": [
        {
          "internalType": "address",
          "name": "_address",
          "type": "address"
        }
      ],
      "name": "checkOwner",
      "outputs": [
        {
          "internalType": "bool",
          "name": "",
          "type": "bool"
        }
      ],
      "stateMutability": "view",
      "type": "function"
    },
    {
      "inputs": [
        {
          "internalType": "address",
          "name": "_address",
          "type": "address"
        }
      ],
      "name": "checkOwnerOrAdminOrManager",
      "outputs": [
        {
          "internalType": "bool",
          "name": "",
          "type": "bool"
        }
      ],
      "stateMutability": "view",
      "type": "function"
    },
    {
      "inputs": [
        {
          "internalType": "string",
          "name": "_id",
          "type": "string"
        },
        {
          "internalType": "address",
          "name": "organizer",
          "type": "address"
        },
        {
          "internalType": "string",
          "name": "_title",
          "type": "string"
        },
        {
          "internalType": "uint256",
          "name": "_bonus",
          "type": "uint256"
        },
        {
          "internalType": "string",
          "name": "_description",
          "type": "string"
        },
        {
          "internalType": "string",
          "name": "_status",
          "type": "string"
        },
        {
          "internalType": "string",
          "name": "_dateStart",
          "type": "string"
        },
        {
          "internalType": "string",
          "name": "_dateEnd",
          "type": "string"
        }
      ],
      "name": "createEvent",
      "outputs": [],
      "stateMutability": "nonpayable",
      "type": "function"
    },
    {
      "inputs": [
        {
          "internalType": "string",
          "name": "",
          "type": "string"
        }
      ],
      "name": "events",
      "outputs": [
        {
          "internalType": "address",
          "name": "organizer",
          "type": "address"
        },
        {
          "internalType": "string",
          "name": "title",
          "type": "string"
        },
        {
          "internalType": "uint256",
          "name": "bonus",
          "type": "uint256"
        },
        {
          "internalType": "string",
          "name": "description",
          "type": "string"
        },
        {
          "internalType": "string",
          "name": "status",
          "type": "string"
        },
        {
          "internalType": "string",
          "name": "dateStart",
          "type": "string"
        },
        {
          "internalType": "string",
          "name": "dateEnd",
          "type": "string"
        }
      ],
      "stateMutability": "view",
      "type": "function"
    },
    {
      "inputs": [
        {
          "internalType": "address",
          "name": "",
          "type": "address"
        }
      ],
      "name": "managers",
      "outputs": [
        {
          "internalType": "bool",
          "name": "",
          "type": "bool"
        }
      ],
      "stateMutability": "view",
      "type": "function"
    },
    {
      "inputs": [],
      "name": "owner",
      "outputs": [
        {
          "internalType": "address",
          "name": "",
          "type": "address"
        }
      ],
      "stateMutability": "view",
      "type": "function"
    },
    {
      "inputs": [
        {
          "internalType": "address",
          "name": "_address",
          "type": "address"
        }
      ],
      "name": "removeAdmin",
      "outputs": [],
      "stateMutability": "nonpayable",
      "type": "function"
    },
    {
      "inputs": [
        {
          "internalType": "string",
          "name": "_id",
          "type": "string"
        }
      ],
      "name": "removeEvent",
      "outputs": [],
      "stateMutability": "nonpayable",
      "type": "function"
    },
    {
      "inputs": [
        {
          "internalType": "address",
          "name": "_address",
          "type": "address"
        }
      ],
      "name": "removeManager",
      "outputs": [],
      "stateMutability": "nonpayable",
      "type": "function"
    },
    {
      "inputs": [
        {
          "internalType": "address",
          "name": "_address",
          "type": "address"
        }
      ],
      "name": "removeUser",
      "outputs": [],
      "stateMutability": "nonpayable",
      "type": "function"
    },
    {
      "inputs": [
        {
          "internalType": "address",
          "name": "_newOwner",
          "type": "address"
        }
      ],
      "name": "transferOwnership",
      "outputs": [],
      "stateMutability": "nonpayable",
      "type": "function"
    },
    {
      "inputs": [
        {
          "internalType": "address",
          "name": "",
          "type": "address"
        }
      ],
      "name": "users",
      "outputs": [
        {
          "internalType": "bool",
          "name": "",
          "type": "bool"
        }
      ],
      "stateMutability": "view",
      "type": "function"
    }
  ],
  "bytecode": "0x608060405234801561001057600080fd5b50336000806101000a81548173ffffffffffffffffffffffffffffffffffffffff021916908373ffffffffffffffffffffffffffffffffffffffff160217905550336000806101000a81548173ffffffffffffffffffffffffffffffffffffffff021916908373ffffffffffffffffffffffffffffffffffffffff160217905550612177806100a06000396000f3fe608060405234801561001057600080fd5b50600436106101215760003560e01c80639026dee8116100ad578063d16856ca11610071578063d16856ca1461032e578063e0e3671c1461034a578063ec26019d1461037a578063f2fde38b146103aa578063fdff9b4d146103c657610121565b80639026dee8146102605780639673d6a31461029057806398575188146102c6578063a87430ba146102e2578063ac18de431461031257610121565b8063294827a2116100f4578063294827a2146101aa578063429b62e5146101da5780634b68d4311461020a57806362377de4146102265780638da5cb5b1461024257610121565b806316aa8332146101265780631785f53c1461015657806319844fa014610172578063229c76eb1461018e575b600080fd5b610140600480360381019061013b919061169c565b6103f6565b60405161014d91906116e4565b60405180910390f35b610170600480360381019061016b919061169c565b6104f6565b005b61018c60048036038101906101879190611845565b6105df565b005b6101a860048036038101906101a3919061188e565b61070e565b005b6101c460048036038101906101bf919061169c565b61084c565b6040516101d191906116e4565b60405180910390f35b6101f460048036038101906101ef919061169c565b6108f6565b60405161020191906116e4565b60405180910390f35b610224600480360381019061021f919061188e565b610916565b005b610240600480360381019061023b9190611920565b610aa8565b005b61024a610cbd565b6040516102579190611a8d565b60405180910390f35b61027a6004803603810190610275919061169c565b610ce1565b60405161028791906116e4565b60405180910390f35b6102aa60048036038101906102a59190611845565b610d37565b6040516102bd9796959493929190611b36565b60405180910390f35b6102e060048036038101906102db919061169c565b611057565b005b6102fc60048036038101906102f7919061169c565b6111e8565b60405161030991906116e4565b60405180910390f35b61032c6004803603810190610327919061169c565b611208565b005b6103486004803603810190610343919061188e565b611345565b005b610364600480360381019061035f919061169c565b61142e565b60405161037191906116e4565b60405180910390f35b610394600480360381019061038f919061169c565b611486565b6040516103a191906116e4565b60405180910390f35b6103c460048036038101906103bf919061169c565b6114dc565b005b6103e060048036038101906103db919061169c565b6115ad565b6040516103ed91906116e4565b60405180910390f35b60008173ffffffffffffffffffffffffffffffffffffffff1660008054906101000a900473ffffffffffffffffffffffffffffffffffffffff1673ffffffffffffffffffffffffffffffffffffffff16148061049b5750600160008373ffffffffffffffffffffffffffffffffffffffff1673ffffffffffffffffffffffffffffffffffffffff16815260200190815260200160002060009054906101000a900460ff165b806104ef5750600260008373ffffffffffffffffffffffffffffffffffffffff1673ffffffffffffffffffffffffffffffffffffffff16815260200190815260200160002060009054906101000a900460ff165b9050919050565b60008054906101000a900473ffffffffffffffffffffffffffffffffffffffff1673ffffffffffffffffffffffffffffffffffffffff163373ffffffffffffffffffffffffffffffffffffffff1614610584576040517f08c379a000000000000000000000000000000000000000000000000000000000815260040161057b90611c3a565b60405180910390fd5b6000600160008373ffffffffffffffffffffffffffffffffffffffff1673ffffffffffffffffffffffffffffffffffffffff16815260200190815260200160002060006101000a81548160ff02191690831515021790555050565b600160003373ffffffffffffffffffffffffffffffffffffffff1673ffffffffffffffffffffffffffffffffffffffff16815260200190815260200160002060009054906101000a900460ff1661066b576040517f08c379a000000000000000000000000000000000000000000000000000000000815260040161066290611ccc565b60405180910390fd5b60048160405161067b9190611d28565b9081526020016040518091039020600080820160006101000a81549073ffffffffffffffffffffffffffffffffffffffff02191690556001820160006106c191906115cd565b60028201600090556003820160006106d991906115cd565b6004820160006106e991906115cd565b6005820160006106f991906115cd565b60068201600061070991906115cd565b505050565b60008054906101000a900473ffffffffffffffffffffffffffffffffffffffff1673ffffffffffffffffffffffffffffffffffffffff163373ffffffffffffffffffffffffffffffffffffffff1614806107b15750600160003373ffffffffffffffffffffffffffffffffffffffff1673ffffffffffffffffffffffffffffffffffffffff16815260200190815260200160002060009054906101000a900460ff165b6107f0576040517f08c379a00000000000000000000000000000000000000000000000000000000081526004016107e790611db1565b60405180910390fd5b6001600260008473ffffffffffffffffffffffffffffffffffffffff1673ffffffffffffffffffffffffffffffffffffffff16815260200190815260200160002060006101000a81548160ff0219169083151502179055505050565b6000600160008373ffffffffffffffffffffffffffffffffffffffff1673ffffffffffffffffffffffffffffffffffffffff16815260200190815260200160002060009054906101000a900460ff16806108ef5750600260008373ffffffffffffffffffffffffffffffffffffffff1673ffffffffffffffffffffffffffffffffffffffff16815260200190815260200160002060009054906101000a900460ff165b9050919050565b60016020528060005260406000206000915054906101000a900460ff1681565b60008054906101000a900473ffffffffffffffffffffffffffffffffffffffff1673ffffffffffffffffffffffffffffffffffffffff163373ffffffffffffffffffffffffffffffffffffffff1614806109b95750600160003373ffffffffffffffffffffffffffffffffffffffff1673ffffffffffffffffffffffffffffffffffffffff16815260200190815260200160002060009054906101000a900460ff165b80610a0d5750600260003373ffffffffffffffffffffffffffffffffffffffff1673ffffffffffffffffffffffffffffffffffffffff16815260200190815260200160002060009054906101000a900460ff165b610a4c576040517f08c379a0000000000000000000000000000000000000000000000000000000008152600401610a4390611e43565b60405180910390fd5b6001600360008473ffffffffffffffffffffffffffffffffffffffff1673ffffffffffffffffffffffffffffffffffffffff16815260200190815260200160002060006101000a81548160ff0219169083151502179055505050565b60008054906101000a900473ffffffffffffffffffffffffffffffffffffffff1673ffffffffffffffffffffffffffffffffffffffff163373ffffffffffffffffffffffffffffffffffffffff161480610b4b5750600160003373ffffffffffffffffffffffffffffffffffffffff1673ffffffffffffffffffffffffffffffffffffffff16815260200190815260200160002060009054906101000a900460ff165b610b8a576040517f08c379a0000000000000000000000000000000000000000000000000000000008152600401610b8190611db1565b60405180910390fd5b6040518060e001604052803373ffffffffffffffffffffffffffffffffffffffff16815260200187815260200186815260200185815260200184815260200183815260200182815250600489604051610be39190611d28565b908152602001604051809103902060008201518160000160006101000a81548173ffffffffffffffffffffffffffffffffffffffff021916908373ffffffffffffffffffffffffffffffffffffffff1602179055506020820151816001019081610c4d919061206f565b50604082015181600201556060820151816003019081610c6d919061206f565b506080820151816004019081610c83919061206f565b5060a0820151816005019081610c99919061206f565b5060c0820151816006019081610caf919061206f565b509050505050505050505050565b60008054906101000a900473ffffffffffffffffffffffffffffffffffffffff1681565b6000600160008373ffffffffffffffffffffffffffffffffffffffff1673ffffffffffffffffffffffffffffffffffffffff16815260200190815260200160002060009054906101000a900460ff169050919050565b6004818051602081018201805184825260208301602085012081835280955050505050506000915090508060000160009054906101000a900473ffffffffffffffffffffffffffffffffffffffff1690806001018054610d9690611e92565b80601f0160208091040260200160405190810160405280929190818152602001828054610dc290611e92565b8015610e0f5780601f10610de457610100808354040283529160200191610e0f565b820191906000526020600020905b815481529060010190602001808311610df257829003601f168201915b505050505090806002015490806003018054610e2a90611e92565b80601f0160208091040260200160405190810160405280929190818152602001828054610e5690611e92565b8015610ea35780601f10610e7857610100808354040283529160200191610ea3565b820191906000526020600020905b815481529060010190602001808311610e8657829003601f168201915b505050505090806004018054610eb890611e92565b80601f0160208091040260200160405190810160405280929190818152602001828054610ee490611e92565b8015610f315780601f10610f0657610100808354040283529160200191610f31565b820191906000526020600020905b815481529060010190602001808311610f1457829003601f168201915b505050505090806005018054610f4690611e92565b80601f0160208091040260200160405190810160405280929190818152602001828054610f7290611e92565b8015610fbf5780601f10610f9457610100808354040283529160200191610fbf565b820191906000526020600020905b815481529060010190602001808311610fa257829003601f168201915b505050505090806006018054610fd490611e92565b80601f016020809104026020016040519081016040528092919081815260200182805461100090611e92565b801561104d5780601f106110225761010080835404028352916020019161104d565b820191906000526020600020905b81548152906001019060200180831161103057829003601f168201915b5050505050905087565b60008054906101000a900473ffffffffffffffffffffffffffffffffffffffff1673ffffffffffffffffffffffffffffffffffffffff163373ffffffffffffffffffffffffffffffffffffffff1614806110fa5750600160003373ffffffffffffffffffffffffffffffffffffffff1673ffffffffffffffffffffffffffffffffffffffff16815260200190815260200160002060009054906101000a900460ff165b8061114e5750600260003373ffffffffffffffffffffffffffffffffffffffff1673ffffffffffffffffffffffffffffffffffffffff16815260200190815260200160002060009054906101000a900460ff165b61118d576040517f08c379a000000000000000000000000000000000000000000000000000000000815260040161118490611e43565b60405180910390fd5b6000600360008373ffffffffffffffffffffffffffffffffffffffff1673ffffffffffffffffffffffffffffffffffffffff16815260200190815260200160002060006101000a81548160ff02191690831515021790555050565b60036020528060005260406000206000915054906101000a900460ff1681565b60008054906101000a900473ffffffffffffffffffffffffffffffffffffffff1673ffffffffffffffffffffffffffffffffffffffff163373ffffffffffffffffffffffffffffffffffffffff1614806112ab5750600160003373ffffffffffffffffffffffffffffffffffffffff1673ffffffffffffffffffffffffffffffffffffffff16815260200190815260200160002060009054906101000a900460ff165b6112ea576040517f08c379a00000000000000000000000000000000000000000000000000000000081526004016112e190611db1565b60405180910390fd5b6000600260008373ffffffffffffffffffffffffffffffffffffffff1673ffffffffffffffffffffffffffffffffffffffff16815260200190815260200160002060006101000a81548160ff02191690831515021790555050565b60008054906101000a900473ffffffffffffffffffffffffffffffffffffffff1673ffffffffffffffffffffffffffffffffffffffff163373ffffffffffffffffffffffffffffffffffffffff16146113d3576040517f08c379a00000000000000000000000000000000000000000000000000000000081526004016113ca90611c3a565b60405180910390fd5b60018060008473ffffffffffffffffffffffffffffffffffffffff1673ffffffffffffffffffffffffffffffffffffffff16815260200190815260200160002060006101000a81548160ff0219169083151502179055505050565b60008173ffffffffffffffffffffffffffffffffffffffff1660008054906101000a900473ffffffffffffffffffffffffffffffffffffffff1673ffffffffffffffffffffffffffffffffffffffff16149050919050565b6000600260008373ffffffffffffffffffffffffffffffffffffffff1673ffffffffffffffffffffffffffffffffffffffff16815260200190815260200160002060009054906101000a900460ff169050919050565b60008054906101000a900473ffffffffffffffffffffffffffffffffffffffff1673ffffffffffffffffffffffffffffffffffffffff163373ffffffffffffffffffffffffffffffffffffffff161461156a576040517f08c379a000000000000000000000000000000000000000000000000000000000815260040161156190611c3a565b60405180910390fd5b806000806101000a81548173ffffffffffffffffffffffffffffffffffffffff021916908373ffffffffffffffffffffffffffffffffffffffff16021790555050565b60026020528060005260406000206000915054906101000a900460ff1681565b5080546115d990611e92565b6000825580601f106115eb575061160a565b601f016020900490600052602060002090810190611609919061160d565b5b50565b5b8082111561162657600081600090555060010161160e565b5090565b6000604051905090565b600080fd5b600080fd5b600073ffffffffffffffffffffffffffffffffffffffff82169050919050565b60006116698261163e565b9050919050565b6116798161165e565b811461168457600080fd5b50565b60008135905061169681611670565b92915050565b6000602082840312156116b2576116b1611634565b5b60006116c084828501611687565b91505092915050565b60008115159050919050565b6116de816116c9565b82525050565b60006020820190506116f960008301846116d5565b92915050565b600080fd5b600080fd5b6000601f19601f8301169050919050565b7f4e487b7100000000000000000000000000000000000000000000000000000000600052604160045260246000fd5b61175282611709565b810181811067ffffffffffffffff821117156117715761177061171a565b5b80604052505050565b600061178461162a565b90506117908282611749565b919050565b600067ffffffffffffffff8211156117b0576117af61171a565b5b6117b982611709565b9050602081019050919050565b82818337600083830152505050565b60006117e86117e384611795565b61177a565b90508281526020810184848401111561180457611803611704565b5b61180f8482856117c6565b509392505050565b600082601f83011261182c5761182b6116ff565b5b813561183c8482602086016117d5565b91505092915050565b60006020828403121561185b5761185a611634565b5b600082013567ffffffffffffffff81111561187957611878611639565b5b61188584828501611817565b91505092915050565b600080604083850312156118a5576118a4611634565b5b60006118b385828601611687565b925050602083013567ffffffffffffffff8111156118d4576118d3611639565b5b6118e085828601611817565b9150509250929050565b6000819050919050565b6118fd816118ea565b811461190857600080fd5b50565b60008135905061191a816118f4565b92915050565b600080600080600080600080610100898b03121561194157611940611634565b5b600089013567ffffffffffffffff81111561195f5761195e611639565b5b61196b8b828c01611817565b985050602061197c8b828c01611687565b975050604089013567ffffffffffffffff81111561199d5761199c611639565b5b6119a98b828c01611817565b96505060606119ba8b828c0161190b565b955050608089013567ffffffffffffffff8111156119db576119da611639565b5b6119e78b828c01611817565b94505060a089013567ffffffffffffffff811115611a0857611a07611639565b5b611a148b828c01611817565b93505060c089013567ffffffffffffffff811115611a3557611a34611639565b5b611a418b828c01611817565b92505060e089013567ffffffffffffffff811115611a6257611a61611639565b5b611a6e8b828c01611817565b9150509295985092959890939650565b611a878161165e565b82525050565b6000602082019050611aa26000830184611a7e565b92915050565b600081519050919050565b600082825260208201905092915050565b60005b83811015611ae2578082015181840152602081019050611ac7565b60008484015250505050565b6000611af982611aa8565b611b038185611ab3565b9350611b13818560208601611ac4565b611b1c81611709565b840191505092915050565b611b30816118ea565b82525050565b600060e082019050611b4b600083018a611a7e565b8181036020830152611b5d8189611aee565b9050611b6c6040830188611b27565b8181036060830152611b7e8187611aee565b90508181036080830152611b928186611aee565b905081810360a0830152611ba68185611aee565b905081810360c0830152611bba8184611aee565b905098975050505050505050565b7f4f6e6c79206f776e65722063616e2063616c6c20746869732066756e6374696f60008201527f6e00000000000000000000000000000000000000000000000000000000000000602082015250565b6000611c24602183611ab3565b9150611c2f82611bc8565b604082019050919050565b60006020820190508181036000830152611c5381611c17565b9050919050565b7f4f6e6c792061646d696e2063616e2063616c6c20746869732066756e6374696f60008201527f6e00000000000000000000000000000000000000000000000000000000000000602082015250565b6000611cb6602183611ab3565b9150611cc182611c5a565b604082019050919050565b60006020820190508181036000830152611ce581611ca9565b9050919050565b600081905092915050565b6000611d0282611aa8565b611d0c8185611cec565b9350611d1c818560208601611ac4565b80840191505092915050565b6000611d348284611cf7565b915081905092915050565b7f4f6e6c79206f776e6572206f722061646d696e2063616e2063616c6c2074686960008201527f732066756e6374696f6e00000000000000000000000000000000000000000000602082015250565b6000611d9b602a83611ab3565b9150611da682611d3f565b604082019050919050565b60006020820190508181036000830152611dca81611d8e565b9050919050565b7f4f6e6c79206f776e65722c2061646d696e206f72206d616e616765722063616e60008201527f2063616c6c20746869732066756e6374696f6e00000000000000000000000000602082015250565b6000611e2d603383611ab3565b9150611e3882611dd1565b604082019050919050565b60006020820190508181036000830152611e5c81611e20565b9050919050565b7f4e487b7100000000000000000000000000000000000000000000000000000000600052602260045260246000fd5b60006002820490506001821680611eaa57607f821691505b602082108103611ebd57611ebc611e63565b5b50919050565b60008190508160005260206000209050919050565b60006020601f8301049050919050565b600082821b905092915050565b600060088302611f257fffffffffffffffffffffffffffffffffffffffffffffffffffffffffffffffff82611ee8565b611f2f8683611ee8565b95508019841693508086168417925050509392505050565b6000819050919050565b6000611f6c611f67611f62846118ea565b611f47565b6118ea565b9050919050565b6000819050919050565b611f8683611f51565b611f9a611f9282611f73565b848454611ef5565b825550505050565b600090565b611faf611fa2565b611fba818484611f7d565b505050565b5b81811015611fde57611fd3600082611fa7565b600181019050611fc0565b5050565b601f82111561202357611ff481611ec3565b611ffd84611ed8565b8101602085101561200c578190505b61202061201885611ed8565b830182611fbf565b50505b505050565b600082821c905092915050565b600061204660001984600802612028565b1980831691505092915050565b600061205f8383612035565b9150826002028217905092915050565b61207882611aa8565b67ffffffffffffffff8111156120915761209061171a565b5b61209b8254611e92565b6120a6828285611fe2565b600060209050601f8311600181146120d957600084156120c7578287015190505b6120d18582612053565b865550612139565b601f1984166120e786611ec3565b60005b8281101561210f578489015182556001820191506020850194506020810190506120ea565b8683101561212c5784890151612128601f891682612035565b8355505b6001600288020188555050505b50505050505056fea264697066735822122076caae35532d7814edc26fa1edcc333384f2c18d0e43dbeb3272de562d16fedf64736f6c63430008110033",
  "linkReferences": {},
  "deployedLinkReferences": {}
}