{
  "_format": "hh-sol-artifact-1",
  "contractName": "Gifts",
  "sourceName": "contracts/Gifts.sol",
  "abi": [
    {
      "inputs": [],
      "stateMutability": "nonpayable",
      "type": "constructor"
    },
    {
      "inputs": [
        {
          "internalType": "address",
          "name": "_address",
          "type": "address"
        },
        {
          "internalType": "string",
          "name": "name",
          "type": "string"
        }
      ],
      "name": "addAdmin",
      "outputs": [],
      "stateMutability": "nonpayable",
      "type": "function"
    },
    {
      "inputs": [
        {
          "internalType": "address",
          "name": "_address",
          "type": "address"
        },
        {
          "internalType": "string",
          "name": "name",
          "type": "string"
        }
      ],
      "name": "addManager",
      "outputs": [],
      "stateMutability": "nonpayable",
      "type": "function"
    },
    {
      "inputs": [
        {
          "internalType": "address",
          "name": "_address",
          "type": "address"
        },
        {
          "internalType": "string",
          "name": "name",
          "type": "string"
        }
      ],
      "name": "addUser",
      "outputs": [],
      "stateMutability": "nonpayable",
      "type": "function"
    },
    {
      "inputs": [
        {
          "internalType": "address",
          "name": "",
          "type": "address"
        }
      ],
      "name": "admins",
      "outputs": [
        {
          "internalType": "bool",
          "name": "",
          "type": "bool"
        }
      ],
      "stateMutability": "view",
      "type": "function"
    },
    {
      "inputs": [
        {
          "internalType": "address",
          "name": "_address",
          "type": "address"
        }
      ],
      "name": "checkAdmin",
      "outputs": [
        {
          "internalType": "bool",
          "name": "",
          "type": "bool"
        }
      ],
      "stateMutability": "view",
      "type": "function"
    },
    {
      "inputs": [
        {
          "internalType": "address",
          "name": "_address",
          "type": "address"
        }
      ],
      "name": "checkAdminOrManager",
      "outputs": [
        {
          "internalType": "bool",
          "name": "",
          "type": "bool"
        }
      ],
      "stateMutability": "view",
      "type": "function"
    },
    {
      "inputs": [
        {
          "internalType": "address",
          "name": "_address",
          "type": "address"
        }
      ],
      "name": "checkManager",
      "outputs": [
        {
          "internalType": "bool",
          "name": "",
          "type": "bool"
        }
      ],
      "stateMutability": "view",
      "type": "function"
    },
    {
      "inputs": [
        {
          "internalType": "address",
          "name": "_address",
          "type": "address"
        }
      ],
      "name": "checkOwner",
      "outputs": [
        {
          "internalType": "bool",
          "name": "",
          "type": "bool"
        }
      ],
      "stateMutability": "view",
      "type": "function"
    },
    {
      "inputs": [
        {
          "internalType": "address",
          "name": "_address",
          "type": "address"
        }
      ],
      "name": "checkOwnerOrAdminOrManager",
      "outputs": [
        {
          "internalType": "bool",
          "name": "",
          "type": "bool"
        }
      ],
      "stateMutability": "view",
      "type": "function"
    },
    {
      "inputs": [
        {
          "internalType": "string",
          "name": "_id",
          "type": "string"
        },
        {
          "internalType": "address",
          "name": "_sender",
          "type": "address"
        },
        {
          "internalType": "uint256",
          "name": "_amount",
          "type": "uint256"
        },
        {
          "internalType": "string",
          "name": "_name",
          "type": "string"
        },
        {
          "internalType": "string",
          "name": "_description",
          "type": "string"
        },
        {
          "internalType": "uint256",
          "name": "_price",
          "type": "uint256"
        },
        {
          "internalType": "string",
          "name": "_timestamp",
          "type": "string"
        }
      ],
      "name": "createGift",
      "outputs": [],
      "stateMutability": "nonpayable",
      "type": "function"
    },
    {
      "inputs": [
        {
          "internalType": "string",
          "name": "",
          "type": "string"
        }
      ],
      "name": "gifts",
      "outputs": [
        {
          "internalType": "address",
          "name": "sender",
          "type": "address"
        },
        {
          "internalType": "uint256",
          "name": "amount",
          "type": "uint256"
        },
        {
          "internalType": "string",
          "name": "timestamp",
          "type": "string"
        },
        {
          "internalType": "string",
          "name": "name",
          "type": "string"
        },
        {
          "internalType": "string",
          "name": "description",
          "type": "string"
        },
        {
          "internalType": "uint256",
          "name": "price",
          "type": "uint256"
        }
      ],
      "stateMutability": "view",
      "type": "function"
    },
    {
      "inputs": [
        {
          "internalType": "address",
          "name": "",
          "type": "address"
        }
      ],
      "name": "managers",
      "outputs": [
        {
          "internalType": "bool",
          "name": "",
          "type": "bool"
        }
      ],
      "stateMutability": "view",
      "type": "function"
    },
    {
      "inputs": [],
      "name": "owner",
      "outputs": [
        {
          "internalType": "address",
          "name": "",
          "type": "address"
        }
      ],
      "stateMutability": "view",
      "type": "function"
    },
    {
      "inputs": [
        {
          "internalType": "address",
          "name": "_address",
          "type": "address"
        }
      ],
      "name": "removeAdmin",
      "outputs": [],
      "stateMutability": "nonpayable",
      "type": "function"
    },
    {
      "inputs": [
        {
          "internalType": "string",
          "name": "_id",
          "type": "string"
        }
      ],
      "name": "removeGift",
      "outputs": [],
      "stateMutability": "nonpayable",
      "type": "function"
    },
    {
      "inputs": [
        {
          "internalType": "address",
          "name": "_address",
          "type": "address"
        }
      ],
      "name": "removeManager",
      "outputs": [],
      "stateMutability": "nonpayable",
      "type": "function"
    },
    {
      "inputs": [
        {
          "internalType": "address",
          "name": "_address",
          "type": "address"
        }
      ],
      "name": "removeUser",
      "outputs": [],
      "stateMutability": "nonpayable",
      "type": "function"
    },
    {
      "inputs": [
        {
          "internalType": "address",
          "name": "_newOwner",
          "type": "address"
        }
      ],
      "name": "transferOwnership",
      "outputs": [],
      "stateMutability": "nonpayable",
      "type": "function"
    },
    {
      "inputs": [
        {
          "internalType": "address",
          "name": "",
          "type": "address"
        }
      ],
      "name": "users",
      "outputs": [
        {
          "internalType": "bool",
          "name": "",
          "type": "bool"
        }
      ],
      "stateMutability": "view",
      "type": "function"
    }
  ],
  "bytecode": "0x608060405234801561001057600080fd5b50336000806101000a81548173ffffffffffffffffffffffffffffffffffffffff021916908373ffffffffffffffffffffffffffffffffffffffff160217905550336000806101000a81548173ffffffffffffffffffffffffffffffffffffffff021916908373ffffffffffffffffffffffffffffffffffffffff160217905550611fb7806100a06000396000f3fe608060405234801561001057600080fd5b50600436106101215760003560e01c8063a87430ba116100ad578063e0e3671c11610071578063e0e3671c1461032d578063e24e5f081461035d578063ec26019d14610379578063f2fde38b146103a9578063fdff9b4d146103c557610121565b8063a87430ba14610274578063abcc729b146102a4578063ac18de43146102c0578063b038ac81146102dc578063d16856ca1461031157610121565b8063429b62e5116100f4578063429b62e5146101be5780634b68d431146101ee5780638da5cb5b1461020a5780639026dee814610228578063985751881461025857610121565b806316aa8332146101265780631785f53c14610156578063229c76eb14610172578063294827a21461018e575b600080fd5b610140600480360381019061013b9190611544565b6103f5565b60405161014d919061158c565b60405180910390f35b610170600480360381019061016b9190611544565b6104f5565b005b61018c600480360381019061018791906116ed565b6105de565b005b6101a860048036038101906101a39190611544565b61071c565b6040516101b5919061158c565b60405180910390f35b6101d860048036038101906101d39190611544565b6107c6565b6040516101e5919061158c565b60405180910390f35b610208600480360381019061020391906116ed565b6107e6565b005b610212610978565b60405161021f9190611758565b60405180910390f35b610242600480360381019061023d9190611544565b61099c565b60405161024f919061158c565b60405180910390f35b610272600480360381019061026d9190611544565b6109f2565b005b61028e60048036038101906102899190611544565b610b83565b60405161029b919061158c565b60405180910390f35b6102be60048036038101906102b991906117a9565b610ba3565b005b6102da60048036038101906102d59190611544565b610d8f565b005b6102f660048036038101906102f191906118bb565b610ecc565b60405161030896959493929190611992565b60405180910390f35b61032b600480360381019061032691906116ed565b6110d6565b005b61034760048036038101906103429190611544565b6111bf565b604051610354919061158c565b60405180910390f35b610377600480360381019061037291906118bb565b611217565b005b610393600480360381019061038e9190611544565b61132e565b6040516103a0919061158c565b60405180910390f35b6103c360048036038101906103be9190611544565b611384565b005b6103df60048036038101906103da9190611544565b611455565b6040516103ec919061158c565b60405180910390f35b60008173ffffffffffffffffffffffffffffffffffffffff1660008054906101000a900473ffffffffffffffffffffffffffffffffffffffff1673ffffffffffffffffffffffffffffffffffffffff16148061049a5750600160008373ffffffffffffffffffffffffffffffffffffffff1673ffffffffffffffffffffffffffffffffffffffff16815260200190815260200160002060009054906101000a900460ff165b806104ee5750600260008373ffffffffffffffffffffffffffffffffffffffff1673ffffffffffffffffffffffffffffffffffffffff16815260200190815260200160002060009054906101000a900460ff165b9050919050565b60008054906101000a900473ffffffffffffffffffffffffffffffffffffffff1673ffffffffffffffffffffffffffffffffffffffff163373ffffffffffffffffffffffffffffffffffffffff1614610583576040517f08c379a000000000000000000000000000000000000000000000000000000000815260040161057a90611a7a565b60405180910390fd5b6000600160008373ffffffffffffffffffffffffffffffffffffffff1673ffffffffffffffffffffffffffffffffffffffff16815260200190815260200160002060006101000a81548160ff02191690831515021790555050565b60008054906101000a900473ffffffffffffffffffffffffffffffffffffffff1673ffffffffffffffffffffffffffffffffffffffff163373ffffffffffffffffffffffffffffffffffffffff1614806106815750600160003373ffffffffffffffffffffffffffffffffffffffff1673ffffffffffffffffffffffffffffffffffffffff16815260200190815260200160002060009054906101000a900460ff165b6106c0576040517f08c379a00000000000000000000000000000000000000000000000000000000081526004016106b790611b0c565b60405180910390fd5b6001600260008473ffffffffffffffffffffffffffffffffffffffff1673ffffffffffffffffffffffffffffffffffffffff16815260200190815260200160002060006101000a81548160ff0219169083151502179055505050565b6000600160008373ffffffffffffffffffffffffffffffffffffffff1673ffffffffffffffffffffffffffffffffffffffff16815260200190815260200160002060009054906101000a900460ff16806107bf5750600260008373ffffffffffffffffffffffffffffffffffffffff1673ffffffffffffffffffffffffffffffffffffffff16815260200190815260200160002060009054906101000a900460ff165b9050919050565b60016020528060005260406000206000915054906101000a900460ff1681565b60008054906101000a900473ffffffffffffffffffffffffffffffffffffffff1673ffffffffffffffffffffffffffffffffffffffff163373ffffffffffffffffffffffffffffffffffffffff1614806108895750600160003373ffffffffffffffffffffffffffffffffffffffff1673ffffffffffffffffffffffffffffffffffffffff16815260200190815260200160002060009054906101000a900460ff165b806108dd5750600260003373ffffffffffffffffffffffffffffffffffffffff1673ffffffffffffffffffffffffffffffffffffffff16815260200190815260200160002060009054906101000a900460ff165b61091c576040517f08c379a000000000000000000000000000000000000000000000000000000000815260040161091390611b9e565b60405180910390fd5b6001600360008473ffffffffffffffffffffffffffffffffffffffff1673ffffffffffffffffffffffffffffffffffffffff16815260200190815260200160002060006101000a81548160ff0219169083151502179055505050565b60008054906101000a900473ffffffffffffffffffffffffffffffffffffffff1681565b6000600160008373ffffffffffffffffffffffffffffffffffffffff1673ffffffffffffffffffffffffffffffffffffffff16815260200190815260200160002060009054906101000a900460ff169050919050565b60008054906101000a900473ffffffffffffffffffffffffffffffffffffffff1673ffffffffffffffffffffffffffffffffffffffff163373ffffffffffffffffffffffffffffffffffffffff161480610a955750600160003373ffffffffffffffffffffffffffffffffffffffff1673ffffffffffffffffffffffffffffffffffffffff16815260200190815260200160002060009054906101000a900460ff165b80610ae95750600260003373ffffffffffffffffffffffffffffffffffffffff1673ffffffffffffffffffffffffffffffffffffffff16815260200190815260200160002060009054906101000a900460ff165b610b28576040517f08c379a0000000000000000000000000000000000000000000000000000000008152600401610b1f90611b9e565b60405180910390fd5b6000600360008373ffffffffffffffffffffffffffffffffffffffff1673ffffffffffffffffffffffffffffffffffffffff16815260200190815260200160002060006101000a81548160ff02191690831515021790555050565b60036020528060005260406000206000915054906101000a900460ff1681565b60008054906101000a900473ffffffffffffffffffffffffffffffffffffffff1673ffffffffffffffffffffffffffffffffffffffff163373ffffffffffffffffffffffffffffffffffffffff161480610c465750600160003373ffffffffffffffffffffffffffffffffffffffff1673ffffffffffffffffffffffffffffffffffffffff16815260200190815260200160002060009054906101000a900460ff165b610c85576040517f08c379a0000000000000000000000000000000000000000000000000000000008152600401610c7c90611b0c565b60405180910390fd5b6040518060c001604052803373ffffffffffffffffffffffffffffffffffffffff16815260200186815260200182815260200185815260200184815260200183815250600488604051610cd89190611bfa565b908152602001604051809103902060008201518160000160006101000a81548173ffffffffffffffffffffffffffffffffffffffff021916908373ffffffffffffffffffffffffffffffffffffffff160217905550602082015181600101556040820151816002019081610d4c9190611e1d565b506060820151816003019081610d629190611e1d565b506080820151816004019081610d789190611e1d565b5060a0820151816005015590505050505050505050565b60008054906101000a900473ffffffffffffffffffffffffffffffffffffffff1673ffffffffffffffffffffffffffffffffffffffff163373ffffffffffffffffffffffffffffffffffffffff161480610e325750600160003373ffffffffffffffffffffffffffffffffffffffff1673ffffffffffffffffffffffffffffffffffffffff16815260200190815260200160002060009054906101000a900460ff165b610e71576040517f08c379a0000000000000000000000000000000000000000000000000000000008152600401610e6890611b0c565b60405180910390fd5b6000600260008373ffffffffffffffffffffffffffffffffffffffff1673ffffffffffffffffffffffffffffffffffffffff16815260200190815260200160002060006101000a81548160ff02191690831515021790555050565b6004818051602081018201805184825260208301602085012081835280955050505050506000915090508060000160009054906101000a900473ffffffffffffffffffffffffffffffffffffffff1690806001015490806002018054610f3190611c40565b80601f0160208091040260200160405190810160405280929190818152602001828054610f5d90611c40565b8015610faa5780601f10610f7f57610100808354040283529160200191610faa565b820191906000526020600020905b815481529060010190602001808311610f8d57829003601f168201915b505050505090806003018054610fbf90611c40565b80601f0160208091040260200160405190810160405280929190818152602001828054610feb90611c40565b80156110385780601f1061100d57610100808354040283529160200191611038565b820191906000526020600020905b81548152906001019060200180831161101b57829003601f168201915b50505050509080600401805461104d90611c40565b80601f016020809104026020016040519081016040528092919081815260200182805461107990611c40565b80156110c65780601f1061109b576101008083540402835291602001916110c6565b820191906000526020600020905b8154815290600101906020018083116110a957829003601f168201915b5050505050908060050154905086565b60008054906101000a900473ffffffffffffffffffffffffffffffffffffffff1673ffffffffffffffffffffffffffffffffffffffff163373ffffffffffffffffffffffffffffffffffffffff1614611164576040517f08c379a000000000000000000000000000000000000000000000000000000000815260040161115b90611a7a565b60405180910390fd5b60018060008473ffffffffffffffffffffffffffffffffffffffff1673ffffffffffffffffffffffffffffffffffffffff16815260200190815260200160002060006101000a81548160ff0219169083151502179055505050565b60008173ffffffffffffffffffffffffffffffffffffffff1660008054906101000a900473ffffffffffffffffffffffffffffffffffffffff1673ffffffffffffffffffffffffffffffffffffffff16149050919050565b600160003373ffffffffffffffffffffffffffffffffffffffff1673ffffffffffffffffffffffffffffffffffffffff16815260200190815260200160002060009054906101000a900460ff166112a3576040517f08c379a000000000000000000000000000000000000000000000000000000000815260040161129a90611f61565b60405180910390fd5b6004816040516112b39190611bfa565b9081526020016040518091039020600080820160006101000a81549073ffffffffffffffffffffffffffffffffffffffff021916905560018201600090556002820160006113019190611475565b6003820160006113119190611475565b6004820160006113219190611475565b6005820160009055505050565b6000600260008373ffffffffffffffffffffffffffffffffffffffff1673ffffffffffffffffffffffffffffffffffffffff16815260200190815260200160002060009054906101000a900460ff169050919050565b60008054906101000a900473ffffffffffffffffffffffffffffffffffffffff1673ffffffffffffffffffffffffffffffffffffffff163373ffffffffffffffffffffffffffffffffffffffff1614611412576040517f08c379a000000000000000000000000000000000000000000000000000000000815260040161140990611a7a565b60405180910390fd5b806000806101000a81548173ffffffffffffffffffffffffffffffffffffffff021916908373ffffffffffffffffffffffffffffffffffffffff16021790555050565b60026020528060005260406000206000915054906101000a900460ff1681565b50805461148190611c40565b6000825580601f1061149357506114b2565b601f0160209004906000526020600020908101906114b191906114b5565b5b50565b5b808211156114ce5760008160009055506001016114b6565b5090565b6000604051905090565b600080fd5b600080fd5b600073ffffffffffffffffffffffffffffffffffffffff82169050919050565b6000611511826114e6565b9050919050565b61152181611506565b811461152c57600080fd5b50565b60008135905061153e81611518565b92915050565b60006020828403121561155a576115596114dc565b5b60006115688482850161152f565b91505092915050565b60008115159050919050565b61158681611571565b82525050565b60006020820190506115a1600083018461157d565b92915050565b600080fd5b600080fd5b6000601f19601f8301169050919050565b7f4e487b7100000000000000000000000000000000000000000000000000000000600052604160045260246000fd5b6115fa826115b1565b810181811067ffffffffffffffff82111715611619576116186115c2565b5b80604052505050565b600061162c6114d2565b905061163882826115f1565b919050565b600067ffffffffffffffff821115611658576116576115c2565b5b611661826115b1565b9050602081019050919050565b82818337600083830152505050565b600061169061168b8461163d565b611622565b9050828152602081018484840111156116ac576116ab6115ac565b5b6116b784828561166e565b509392505050565b600082601f8301126116d4576116d36115a7565b5b81356116e484826020860161167d565b91505092915050565b60008060408385031215611704576117036114dc565b5b60006117128582860161152f565b925050602083013567ffffffffffffffff811115611733576117326114e1565b5b61173f858286016116bf565b9150509250929050565b61175281611506565b82525050565b600060208201905061176d6000830184611749565b92915050565b6000819050919050565b61178681611773565b811461179157600080fd5b50565b6000813590506117a38161177d565b92915050565b600080600080600080600060e0888a0312156117c8576117c76114dc565b5b600088013567ffffffffffffffff8111156117e6576117e56114e1565b5b6117f28a828b016116bf565b97505060206118038a828b0161152f565b96505060406118148a828b01611794565b955050606088013567ffffffffffffffff811115611835576118346114e1565b5b6118418a828b016116bf565b945050608088013567ffffffffffffffff811115611862576118616114e1565b5b61186e8a828b016116bf565b93505060a061187f8a828b01611794565b92505060c088013567ffffffffffffffff8111156118a05761189f6114e1565b5b6118ac8a828b016116bf565b91505092959891949750929550565b6000602082840312156118d1576118d06114dc565b5b600082013567ffffffffffffffff8111156118ef576118ee6114e1565b5b6118fb848285016116bf565b91505092915050565b61190d81611773565b82525050565b600081519050919050565b600082825260208201905092915050565b60005b8381101561194d578082015181840152602081019050611932565b60008484015250505050565b600061196482611913565b61196e818561191e565b935061197e81856020860161192f565b611987816115b1565b840191505092915050565b600060c0820190506119a76000830189611749565b6119b46020830188611904565b81810360408301526119c68187611959565b905081810360608301526119da8186611959565b905081810360808301526119ee8185611959565b90506119fd60a0830184611904565b979650505050505050565b7f4f6e6c79206f776e65722063616e2063616c6c20746869732066756e6374696f60008201527f6e00000000000000000000000000000000000000000000000000000000000000602082015250565b6000611a6460218361191e565b9150611a6f82611a08565b604082019050919050565b60006020820190508181036000830152611a9381611a57565b9050919050565b7f4f6e6c79206f776e6572206f722061646d696e2063616e2063616c6c2074686960008201527f732066756e6374696f6e00000000000000000000000000000000000000000000602082015250565b6000611af6602a8361191e565b9150611b0182611a9a565b604082019050919050565b60006020820190508181036000830152611b2581611ae9565b9050919050565b7f4f6e6c79206f776e65722c2061646d696e206f72206d616e616765722063616e60008201527f2063616c6c20746869732066756e6374696f6e00000000000000000000000000602082015250565b6000611b8860338361191e565b9150611b9382611b2c565b604082019050919050565b60006020820190508181036000830152611bb781611b7b565b9050919050565b600081905092915050565b6000611bd482611913565b611bde8185611bbe565b9350611bee81856020860161192f565b80840191505092915050565b6000611c068284611bc9565b915081905092915050565b7f4e487b7100000000000000000000000000000000000000000000000000000000600052602260045260246000fd5b60006002820490506001821680611c5857607f821691505b602082108103611c6b57611c6a611c11565b5b50919050565b60008190508160005260206000209050919050565b60006020601f8301049050919050565b600082821b905092915050565b600060088302611cd37fffffffffffffffffffffffffffffffffffffffffffffffffffffffffffffffff82611c96565b611cdd8683611c96565b95508019841693508086168417925050509392505050565b6000819050919050565b6000611d1a611d15611d1084611773565b611cf5565b611773565b9050919050565b6000819050919050565b611d3483611cff565b611d48611d4082611d21565b848454611ca3565b825550505050565b600090565b611d5d611d50565b611d68818484611d2b565b505050565b5b81811015611d8c57611d81600082611d55565b600181019050611d6e565b5050565b601f821115611dd157611da281611c71565b611dab84611c86565b81016020851015611dba578190505b611dce611dc685611c86565b830182611d6d565b50505b505050565b600082821c905092915050565b6000611df460001984600802611dd6565b1980831691505092915050565b6000611e0d8383611de3565b9150826002028217905092915050565b611e2682611913565b67ffffffffffffffff811115611e3f57611e3e6115c2565b5b611e498254611c40565b611e54828285611d90565b600060209050601f831160018114611e875760008415611e75578287015190505b611e7f8582611e01565b865550611ee7565b601f198416611e9586611c71565b60005b82811015611ebd57848901518255600182019150602085019450602081019050611e98565b86831015611eda5784890151611ed6601f891682611de3565b8355505b6001600288020188555050505b505050505050565b7f4f6e6c792061646d696e2063616e2063616c6c20746869732066756e6374696f60008201527f6e00000000000000000000000000000000000000000000000000000000000000602082015250565b6000611f4b60218361191e565b9150611f5682611eef565b604082019050919050565b60006020820190508181036000830152611f7a81611f3e565b905091905056fea26469706673582212208369f5ff8757007b0cf8d1b6b127034bc83bd4acfb563e4805b0376d3c2defd164736f6c63430008110033",
  "linkReferences": {},
  "deployedLinkReferences": {}
}